{
  "_format": "hh-sol-artifact-1",
  "contractName": "RandomGenerator",
  "sourceName": "contracts/RandomGenerator.sol",
  "abi": [
    {
      "inputs": [],
      "stateMutability": "nonpayable",
      "type": "constructor"
    },
    {
      "anonymous": false,
      "inputs": [
        {
          "indexed": true,
          "internalType": "address",
          "name": "previousOwner",
          "type": "address"
        },
        {
          "indexed": true,
          "internalType": "address",
          "name": "newOwner",
          "type": "address"
        }
      ],
      "name": "OwnershipTransferred",
      "type": "event"
    },
    {
      "anonymous": false,
      "inputs": [
        {
          "indexed": false,
          "internalType": "bool",
          "name": "primeNumberSet",
          "type": "bool"
        }
      ],
      "name": "PrimeSet",
      "type": "event"
    },
    {
      "inputs": [],
      "name": "getRandomNumber",
      "outputs": [
        {
          "internalType": "uint256",
          "name": "",
          "type": "uint256"
        }
      ],
      "stateMutability": "nonpayable",
      "type": "function"
    },
    {
      "inputs": [],
      "name": "owner",
      "outputs": [
        {
          "internalType": "address",
          "name": "",
          "type": "address"
        }
      ],
      "stateMutability": "view",
      "type": "function"
    },
    {
      "inputs": [],
      "name": "primeNumberSet",
      "outputs": [
        {
          "internalType": "bool",
          "name": "",
          "type": "bool"
        }
      ],
      "stateMutability": "view",
      "type": "function"
    },
    {
      "inputs": [],
      "name": "primeOne",
      "outputs": [
        {
          "internalType": "uint128",
          "name": "",
          "type": "uint128"
        }
      ],
      "stateMutability": "view",
      "type": "function"
    },
    {
      "inputs": [],
      "name": "primeThree",
      "outputs": [
        {
          "internalType": "uint256",
          "name": "",
          "type": "uint256"
        }
      ],
      "stateMutability": "view",
      "type": "function"
    },
    {
      "inputs": [],
      "name": "primeTwo",
      "outputs": [
        {
          "internalType": "uint256",
          "name": "",
          "type": "uint256"
        }
      ],
      "stateMutability": "view",
      "type": "function"
    },
    {
      "inputs": [
        {
          "internalType": "bytes32",
          "name": "requestId",
          "type": "bytes32"
        },
        {
          "internalType": "uint256",
          "name": "randomness",
          "type": "uint256"
        }
      ],
      "name": "rawFulfillRandomness",
      "outputs": [],
      "stateMutability": "nonpayable",
      "type": "function"
    },
    {
      "inputs": [],
      "name": "renounceOwnership",
      "outputs": [],
      "stateMutability": "nonpayable",
      "type": "function"
    },
    {
      "inputs": [],
      "name": "requestRandomNumber",
      "outputs": [
        {
          "internalType": "bytes32",
          "name": "requestId",
          "type": "bytes32"
        }
      ],
      "stateMutability": "nonpayable",
      "type": "function"
    },
    {
      "inputs": [
        {
          "internalType": "uint128",
          "name": "_primeOne",
          "type": "uint128"
        },
        {
          "internalType": "uint256",
          "name": "_primeTwo",
          "type": "uint256"
        },
        {
          "internalType": "uint256",
          "name": "_primeThree",
          "type": "uint256"
        }
      ],
      "name": "setPrimeNumbers",
      "outputs": [],
      "stateMutability": "nonpayable",
      "type": "function"
    },
    {
      "inputs": [
        {
          "internalType": "address",
          "name": "newOwner",
          "type": "address"
        }
      ],
      "name": "transferOwnership",
      "outputs": [],
      "stateMutability": "nonpayable",
      "type": "function"
    }
  ],
  "bytecode": "0x60c060405260036008556000600960006101000a81548160ff0219169083151502179055503480156200003157600080fd5b5073a555fc018435bef5a13c6c6870a9d4c11dec329c7384b9b910527ad5c03a9ca831909e21e236ea7b066200007c620000706200019e60201b60201c565b620001a660201b60201c565b8173ffffffffffffffffffffffffffffffffffffffff1660a08173ffffffffffffffffffffffffffffffffffffffff1660601b815250508073ffffffffffffffffffffffffffffffffffffffff1660808173ffffffffffffffffffffffffffffffffffffffff1660601b8152505050507fcaf3c3727e033261d383b315559476f48034c13b18f8cafed4d871abe504918660001b60028190555067016345785d8a000060038190555060006c01477fafead479baf7c9a2a024905060006c01477fafead479a0f7f6107cf490506000816fffffffffffffffffffffffffffffffff16836fffffffffffffffffffffffffffffffff166200017d919062000364565b905062000195816200026a60201b620008181760201c565b505050620003fe565b600033905090565b60008060009054906101000a900473ffffffffffffffffffffffffffffffffffffffff169050816000806101000a81548173ffffffffffffffffffffffffffffffffffffffff021916908373ffffffffffffffffffffffffffffffffffffffff1602179055508173ffffffffffffffffffffffffffffffffffffffff168173ffffffffffffffffffffffffffffffffffffffff167f8be0079c531659141344cd1fd0a4f28419497f9722a3daafe3b4186f6b6457e060405160405180910390a35050565b6200030a8160405160240162000281919062000347565b6040516020818303038152906040527ff5b1bba9000000000000000000000000000000000000000000000000000000007bffffffffffffffffffffffffffffffffffffffffffffffffffffffff19166020820180517bffffffffffffffffffffffffffffffffffffffffffffffffffffffff83818316178352505050506200030d60201b60201c565b50565b60008151905060006a636f6e736f6c652e6c6f679050602083016000808483855afa5050505050565b6200034181620003c5565b82525050565b60006020820190506200035e600083018462000336565b92915050565b60006200037182620003c5565b91506200037e83620003c5565b9250817fffffffffffffffffffffffffffffffffffffffffffffffffffffffffffffffff0483118215151615620003ba57620003b9620003cf565b5b828202905092915050565b6000819050919050565b7f4e487b7100000000000000000000000000000000000000000000000000000000600052601160045260246000fd5b60805160601c60a05160601c6115aa620004386000396000818161051e01526109bd0152600081816103f8015261098101526115aa6000f3fe608060405234801561001057600080fd5b50600436106100a95760003560e01c80638da5cb5b116100715780638da5cb5b1461012e57806394985ddd1461014c578063b1a343cd14610168578063c308825e14610186578063dbdff2c1146101a4578063f2fde38b146101c2576100a9565b806347c8d3d9146100ae5780634e08c19b146100cc57806350c25a30146100e8578063715018a6146101065780638678a7b214610110575b600080fd5b6100b66101de565b6040516100c39190611147565b60405180910390f35b6100e660048036038101906100e19190610d3f565b6101e4565b005b6100f0610363565b6040516100fd9190611147565b60405180910390f35b61010e610369565b005b6101186103f1565b6040516101259190610fe3565b60405180910390f35b6101366104f3565b6040516101439190610f6f565b60405180910390f35b61016660048036038101906101619190610cff565b61051c565b005b6101706105b8565b60405161017d919061112c565b60405180910390f35b61018e6105da565b60405161019b9190610fc8565b60405180910390f35b6101ac6105ed565b6040516101b99190611147565b60405180910390f35b6101dc60048036038101906101d79190610ca5565b610720565b005b60055481565b6101ec6108b1565b73ffffffffffffffffffffffffffffffffffffffff1661020a6104f3565b73ffffffffffffffffffffffffffffffffffffffff1614610260576040517f08c379a0000000000000000000000000000000000000000000000000000000008152600401610257906110ac565b60405180910390fd5b60001515600960009054906101000a900460ff161515146102b6576040517f08c379a00000000000000000000000000000000000000000000000000000000081526004016102ad906110cc565b60405180910390fd5b82600460006101000a8154816fffffffffffffffffffffffffffffffff02191690836fffffffffffffffffffffffffffffffff16021790555081600581905550806006819055506001600960006101000a81548160ff0219169083151502179055507f79623b5363e8c54c69e74f71bb27bd0123c38c093265e21d00ff9149218ebdc7600960009054906101000a900460ff166040516103569190610fc8565b60405180910390a1505050565b60065481565b6103716108b1565b73ffffffffffffffffffffffffffffffffffffffff1661038f6104f3565b73ffffffffffffffffffffffffffffffffffffffff16146103e5576040517f08c379a00000000000000000000000000000000000000000000000000000000081526004016103dc906110ac565b60405180910390fd5b6103ef60006108b9565b565b60006003547f000000000000000000000000000000000000000000000000000000000000000073ffffffffffffffffffffffffffffffffffffffff166370a08231306040518263ffffffff1660e01b815260040161044f9190610f6f565b60206040518083038186803b15801561046757600080fd5b505afa15801561047b573d6000803e3d6000fd5b505050506040513d601f19601f8201168201806040525081019061049f9190610d92565b10156104e0576040517f08c379a00000000000000000000000000000000000000000000000000000000081526004016104d79061108c565b60405180910390fd5b6104ee60025460035461097d565b905090565b60008060009054906101000a900473ffffffffffffffffffffffffffffffffffffffff16905090565b7f000000000000000000000000000000000000000000000000000000000000000073ffffffffffffffffffffffffffffffffffffffff163373ffffffffffffffffffffffffffffffffffffffff16146105aa576040517f08c379a00000000000000000000000000000000000000000000000000000000081526004016105a19061110c565b60405180910390fd5b6105b48282610ade565b5050565b600460009054906101000a90046fffffffffffffffffffffffffffffffff1681565b600960009054906101000a900460ff1681565b600060011515600960009054906101000a900460ff16151514610645576040517f08c379a000000000000000000000000000000000000000000000000000000000815260040161063c906110ec565b60405180910390fd5b61066c600760009054906101000a90046fffffffffffffffffffffffffffffffff16610b1b565b600760006101000a8154816fffffffffffffffffffffffffffffffff02191690836fffffffffffffffffffffffffffffffff1602179055506106dd600760009054906101000a90046fffffffffffffffffffffffffffffffff166fffffffffffffffffffffffffffffffff16610818565b600854600760009054906101000a90046fffffffffffffffffffffffffffffffff166fffffffffffffffffffffffffffffffff1661071b91906112f4565b905090565b6107286108b1565b73ffffffffffffffffffffffffffffffffffffffff166107466104f3565b73ffffffffffffffffffffffffffffffffffffffff161461079c576040517f08c379a0000000000000000000000000000000000000000000000000000000008152600401610793906110ac565b60405180910390fd5b600073ffffffffffffffffffffffffffffffffffffffff168173ffffffffffffffffffffffffffffffffffffffff16141561080c576040517f08c379a00000000000000000000000000000000000000000000000000000000081526004016108039061106c565b60405180910390fd5b610815816108b9565b50565b6108ae8160405160240161082c9190611147565b6040516020818303038152906040527ff5b1bba9000000000000000000000000000000000000000000000000000000007bffffffffffffffffffffffffffffffffffffffffffffffffffffffff19166020820180517bffffffffffffffffffffffffffffffffffffffffffffffffffffffff8381831617835250505050610b8f565b50565b600033905090565b60008060009054906101000a900473ffffffffffffffffffffffffffffffffffffffff169050816000806101000a81548173ffffffffffffffffffffffffffffffffffffffff021916908373ffffffffffffffffffffffffffffffffffffffff1602179055508173ffffffffffffffffffffffffffffffffffffffff168173ffffffffffffffffffffffffffffffffffffffff167f8be0079c531659141344cd1fd0a4f28419497f9722a3daafe3b4186f6b6457e060405160405180910390a35050565b60007f000000000000000000000000000000000000000000000000000000000000000073ffffffffffffffffffffffffffffffffffffffff16634000aea07f0000000000000000000000000000000000000000000000000000000000000000848660006040516020016109f1929190610ffe565b6040516020818303038152906040526040518463ffffffff1660e01b8152600401610a1e93929190610f8a565b602060405180830381600087803b158015610a3857600080fd5b505af1158015610a4c573d6000803e3d6000fd5b505050506040513d601f19601f82011682018060405250810190610a709190610cd2565b506000610a93846000306001600089815260200190815260200160002054610bb8565b9050600180600086815260200190815260200160002054610ab4919061118f565b6001600086815260200190815260200160002081905550610ad58482610bf4565b91505092915050565b80600760006101000a8154816fffffffffffffffffffffffffffffffff02191690836fffffffffffffffffffffffffffffffff1602179055505050565b6000600654600554600460009054906101000a90046fffffffffffffffffffffffffffffffff166fffffffffffffffffffffffffffffffff16846fffffffffffffffffffffffffffffffff16610b7191906111e5565b610b7b919061118f565b610b8591906112f4565b9150819050919050565b60008151905060006a636f6e736f6c652e6c6f679050602083016000808483855afa5050505050565b600084848484604051602001610bd19493929190611027565b6040516020818303038152906040528051906020012060001c9050949350505050565b60008282604051602001610c09929190610f43565b60405160208183030381529060405280519060200120905092915050565b600081359050610c3681611501565b92915050565b600081519050610c4b81611518565b92915050565b600081359050610c608161152f565b92915050565b600081359050610c7581611546565b92915050565b600081359050610c8a8161155d565b92915050565b600081519050610c9f8161155d565b92915050565b600060208284031215610cbb57610cba611383565b5b6000610cc984828501610c27565b91505092915050565b600060208284031215610ce857610ce7611383565b5b6000610cf684828501610c3c565b91505092915050565b60008060408385031215610d1657610d15611383565b5b6000610d2485828601610c51565b9250506020610d3585828601610c7b565b9150509250929050565b600080600060608486031215610d5857610d57611383565b5b6000610d6686828701610c66565b9350506020610d7786828701610c7b565b9250506040610d8886828701610c7b565b9150509250925092565b600060208284031215610da857610da7611383565b5b6000610db684828501610c90565b91505092915050565b610dc88161123f565b82525050565b610dd781611251565b82525050565b610de68161125d565b82525050565b610dfd610df88261125d565b6112e0565b82525050565b6000610e0e82611162565b610e18818561116d565b9350610e288185602086016112ad565b610e3181611388565b840191505092915050565b6000610e4960268361117e565b9150610e5482611399565b604082019050919050565b6000610e6c602b8361117e565b9150610e77826113e8565b604082019050919050565b6000610e8f60208361117e565b9150610e9a82611437565b602082019050919050565b6000610eb2601d8361117e565b9150610ebd82611460565b602082019050919050565b6000610ed5602f8361117e565b9150610ee082611489565b604082019050919050565b6000610ef8601f8361117e565b9150610f03826114d8565b602082019050919050565b610f1781611267565b82525050565b610f26816112a3565b82525050565b610f3d610f38826112a3565b6112ea565b82525050565b6000610f4f8285610dec565b602082019150610f5f8284610f2c565b6020820191508190509392505050565b6000602082019050610f846000830184610dbf565b92915050565b6000606082019050610f9f6000830186610dbf565b610fac6020830185610f1d565b8181036040830152610fbe8184610e03565b9050949350505050565b6000602082019050610fdd6000830184610dce565b92915050565b6000602082019050610ff86000830184610ddd565b92915050565b60006040820190506110136000830185610ddd565b6110206020830184610f1d565b9392505050565b600060808201905061103c6000830187610ddd565b6110496020830186610f1d565b6110566040830185610dbf565b6110636060830184610f1d565b95945050505050565b6000602082019050818103600083015261108581610e3c565b9050919050565b600060208201905081810360008301526110a581610e5f565b9050919050565b600060208201905081810360008301526110c581610e82565b9050919050565b600060208201905081810360008301526110e581610ea5565b9050919050565b6000602082019050818103600083015261110581610ec8565b9050919050565b6000602082019050818103600083015261112581610eeb565b9050919050565b60006020820190506111416000830184610f0e565b92915050565b600060208201905061115c6000830184610f1d565b92915050565b600081519050919050565b600082825260208201905092915050565b600082825260208201905092915050565b600061119a826112a3565b91506111a5836112a3565b9250827fffffffffffffffffffffffffffffffffffffffffffffffffffffffffffffffff038211156111da576111d9611325565b5b828201905092915050565b60006111f0826112a3565b91506111fb836112a3565b9250817fffffffffffffffffffffffffffffffffffffffffffffffffffffffffffffffff048311821515161561123457611233611325565b5b828202905092915050565b600061124a82611283565b9050919050565b60008115159050919050565b6000819050919050565b60006fffffffffffffffffffffffffffffffff82169050919050565b600073ffffffffffffffffffffffffffffffffffffffff82169050919050565b6000819050919050565b60005b838110156112cb5780820151818401526020810190506112b0565b838111156112da576000848401525b50505050565b6000819050919050565b6000819050919050565b60006112ff826112a3565b915061130a836112a3565b92508261131a57611319611354565b5b828206905092915050565b7f4e487b7100000000000000000000000000000000000000000000000000000000600052601160045260246000fd5b7f4e487b7100000000000000000000000000000000000000000000000000000000600052601260045260246000fd5b600080fd5b6000601f19601f8301169050919050565b7f4f776e61626c653a206e6577206f776e657220697320746865207a65726f206160008201527f6464726573730000000000000000000000000000000000000000000000000000602082015250565b7f4e6f7420656e6f756768204c494e4b202d2066696c6c20636f6e74726163742060008201527f7769746820666175636574000000000000000000000000000000000000000000602082015250565b7f4f776e61626c653a2063616c6c6572206973206e6f7420746865206f776e6572600082015250565b7f5072696d65206e756d626572732061726520616c726561647920736574000000600082015250565b7f5072696d65206e756d626572732073686f756420626520736574206265666f7260008201527f652073746172742062657474696e670000000000000000000000000000000000602082015250565b7f4f6e6c7920565246436f6f7264696e61746f722063616e2066756c66696c6c00600082015250565b61150a8161123f565b811461151557600080fd5b50565b61152181611251565b811461152c57600080fd5b50565b6115388161125d565b811461154357600080fd5b50565b61154f81611267565b811461155a57600080fd5b50565b611566816112a3565b811461157157600080fd5b5056fea2646970667358221220e447a04a5787f5769aca99a8172088784a68554517166227f4e19a252dc692f064736f6c63430008070033",
  "linkReferences": {},
  "deployedLinkReferences": {}
}