{
  "_format": "hh-sol-artifact-1",
  "contractName": "RPS",
  "sourceName": "contracts/RPS.sol",
  "abi": [
    {
      "inputs": [
        {
          "internalType": "contract RandomGenerator",
          "name": "randomGenerator_",
          "type": "address"
        },
        {
          "internalType": "uint32",
          "name": "fomoTimeSecondLimit_",
          "type": "uint32"
        },
        {
          "internalType": "uint32",
          "name": "fomoPoolPercentage_",
          "type": "uint32"
        }
      ],
      "stateMutability": "nonpayable",
      "type": "constructor"
    },
    {
      "anonymous": false,
      "inputs": [
        {
          "indexed": false,
          "internalType": "uint256",
          "name": "poolAmount",
          "type": "uint256"
        }
      ],
      "name": "AddPool",
      "type": "event"
    },
    {
      "anonymous": false,
      "inputs": [
        {
          "indexed": false,
          "internalType": "address",
          "name": "playerAddress",
          "type": "address"
        },
        {
          "indexed": false,
          "internalType": "uint256",
          "name": "betAmount",
          "type": "uint256"
        }
      ],
      "name": "DealerLoss",
      "type": "event"
    },
    {
      "anonymous": false,
      "inputs": [
        {
          "indexed": false,
          "internalType": "address",
          "name": "playerAddress",
          "type": "address"
        },
        {
          "indexed": false,
          "internalType": "uint256",
          "name": "betAmount",
          "type": "uint256"
        }
      ],
      "name": "DealerWin",
      "type": "event"
    },
    {
      "anonymous": false,
      "inputs": [
        {
          "indexed": true,
          "internalType": "address",
          "name": "previousOwner",
          "type": "address"
        },
        {
          "indexed": true,
          "internalType": "address",
          "name": "newOwner",
          "type": "address"
        }
      ],
      "name": "OwnershipTransferred",
      "type": "event"
    },
    {
      "anonymous": false,
      "inputs": [
        {
          "indexed": false,
          "internalType": "address",
          "name": "playerAddress",
          "type": "address"
        },
        {
          "indexed": false,
          "internalType": "uint256",
          "name": "betAmount",
          "type": "uint256"
        }
      ],
      "name": "Tie",
      "type": "event"
    },
    {
      "inputs": [],
      "name": "addPool",
      "outputs": [],
      "stateMutability": "payable",
      "type": "function"
    },
    {
      "inputs": [
        {
          "internalType": "string",
          "name": "betAction",
          "type": "string"
        }
      ],
      "name": "bet",
      "outputs": [],
      "stateMutability": "payable",
      "type": "function"
    },
    {
      "inputs": [],
      "name": "fomoPool",
      "outputs": [
        {
          "internalType": "uint256",
          "name": "",
          "type": "uint256"
        }
      ],
      "stateMutability": "view",
      "type": "function"
    },
    {
      "inputs": [],
      "name": "fomoPoolPercentage",
      "outputs": [
        {
          "internalType": "uint32",
          "name": "",
          "type": "uint32"
        }
      ],
      "stateMutability": "view",
      "type": "function"
    },
    {
      "inputs": [],
      "name": "fomoTimeSecondLimit",
      "outputs": [
        {
          "internalType": "uint32",
          "name": "",
          "type": "uint32"
        }
      ],
      "stateMutability": "view",
      "type": "function"
    },
    {
      "inputs": [],
      "name": "lastBetTimestamp",
      "outputs": [
        {
          "internalType": "uint256",
          "name": "",
          "type": "uint256"
        }
      ],
      "stateMutability": "view",
      "type": "function"
    },
    {
      "inputs": [],
      "name": "owner",
      "outputs": [
        {
          "internalType": "address",
          "name": "",
          "type": "address"
        }
      ],
      "stateMutability": "view",
      "type": "function"
    },
    {
      "inputs": [],
      "name": "randomGenerator",
      "outputs": [
        {
          "internalType": "contract RandomGenerator",
          "name": "",
          "type": "address"
        }
      ],
      "stateMutability": "view",
      "type": "function"
    },
    {
      "inputs": [],
      "name": "renounceOwnership",
      "outputs": [],
      "stateMutability": "nonpayable",
      "type": "function"
    },
    {
      "inputs": [],
      "name": "throwDice",
      "outputs": [
        {
          "internalType": "uint256",
          "name": "",
          "type": "uint256"
        }
      ],
      "stateMutability": "nonpayable",
      "type": "function"
    },
    {
      "inputs": [
        {
          "internalType": "address",
          "name": "newOwner",
          "type": "address"
        }
      ],
      "name": "transferOwnership",
      "outputs": [],
      "stateMutability": "nonpayable",
      "type": "function"
    }
  ],
  "bytecode": "0x60806040523480156200001157600080fd5b5060405162001b7c38038062001b7c8339818101604052810190620000379190620001dc565b620000576200004b620000e260201b60201c565b620000ea60201b60201c565b82600160006101000a81548173ffffffffffffffffffffffffffffffffffffffff021916908373ffffffffffffffffffffffffffffffffffffffff16021790555081600460006101000a81548163ffffffff021916908363ffffffff160217905550806004806101000a81548163ffffffff021916908363ffffffff160217905550505050620002c9565b600033905090565b60008060009054906101000a900473ffffffffffffffffffffffffffffffffffffffff169050816000806101000a81548173ffffffffffffffffffffffffffffffffffffffff021916908373ffffffffffffffffffffffffffffffffffffffff1602179055508173ffffffffffffffffffffffffffffffffffffffff168173ffffffffffffffffffffffffffffffffffffffff167f8be0079c531659141344cd1fd0a4f28419497f9722a3daafe3b4186f6b6457e060405160405180910390a35050565b600081519050620001bf8162000295565b92915050565b600081519050620001d681620002af565b92915050565b600080600060608486031215620001f857620001f762000290565b5b60006200020886828701620001ae565b93505060206200021b86828701620001c5565b92505060406200022e86828701620001c5565b9150509250925092565b6000620002458262000260565b9050919050565b6000620002598262000238565b9050919050565b600073ffffffffffffffffffffffffffffffffffffffff82169050919050565b600063ffffffff82169050919050565b600080fd5b620002a0816200024c565b8114620002ac57600080fd5b50565b620002ba8162000280565b8114620002c657600080fd5b50565b6118a380620002d96000396000f3fe60806040526004361061009c5760003560e01c80638da5cb5b116100645780638da5cb5b146101555780639d60da0714610180578063b33d5259146101ab578063dcbad90d146101d6578063ed12ba2214610201578063f2fde38b1461020b5761009c565b806305d660f8146100a15780631a2dfede146100cc578063715018a6146100f7578063740305311461010e57806380209c941461012a575b600080fd5b3480156100ad57600080fd5b506100b6610234565b6040516100c391906113e1565b60405180910390f35b3480156100d857600080fd5b506100e16102eb565b6040516100ee91906113fc565b60405180910390f35b34801561010357600080fd5b5061010c6102ff565b005b610128600480360381019061012391906110ac565b610387565b005b34801561013657600080fd5b5061013f6108e1565b60405161014c91906113e1565b60405180910390f35b34801561016157600080fd5b5061016a6108e7565b604051610177919061126b565b60405180910390f35b34801561018c57600080fd5b50610195610910565b6040516101a291906113fc565b60405180910390f35b3480156101b757600080fd5b506101c0610926565b6040516101cd91906113e1565b60405180910390f35b3480156101e257600080fd5b506101eb61092c565b6040516101f891906112af565b60405180910390f35b610209610952565b005b34801561021757600080fd5b50610232600480360381019061022d919061107f565b610a46565b005b600080600160009054906101000a900473ffffffffffffffffffffffffffffffffffffffff1673ffffffffffffffffffffffffffffffffffffffff1663dbdff2c16040518163ffffffff1660e01b8152600401602060405180830381600087803b1580156102a157600080fd5b505af11580156102b5573d6000803e3d6000fd5b505050506040513d601f19601f820116820180604052508101906102d991906110f5565b90506102e481610b3e565b8091505090565b60048054906101000a900463ffffffff1681565b610307610bd7565b73ffffffffffffffffffffffffffffffffffffffff166103256108e7565b73ffffffffffffffffffffffffffffffffffffffff161461037b576040517f08c379a0000000000000000000000000000000000000000000000000000000008152600401610372906113a1565b60405180910390fd5b6103856000610bdf565b565b6103c76040518060400160405280601781526020017f42657474696e6720257320776974682073697a652025730000000000000000008152508234610ca3565b610406816040518060400160405280600181526020017f5200000000000000000000000000000000000000000000000000000000000000815250610d42565b8061044c575061044b816040518060400160405280600181526020017f5000000000000000000000000000000000000000000000000000000000000000815250610d42565b5b806104925750610491816040518060400160405280600181526020017f5300000000000000000000000000000000000000000000000000000000000000815250610d42565b5b6104d1576040517f08c379a00000000000000000000000000000000000000000000000000000000081526004016104c890611381565b60405180910390fd5b6002476104de91906114ea565b341115610520576040517f08c379a0000000000000000000000000000000000000000000000000000000008152600401610517906113c1565b60405180910390fd5b600460009054906101000a900463ffffffff1663ffffffff16600354426105479190611575565b106105ce57600060025411156105cd5761057b60405180606001604052806025815260200161184960259139600254610d9b565b3373ffffffffffffffffffffffffffffffffffffffff166108fc6002549081150290604051600060405180830381858888f193505050501580156105c3573d6000803e3d6000fd5b5060006002819055505b5b6064600a6002546105df919061151b565b6105e991906114ea565b34106105f757426003819055505b6106366040518060400160405280601181526020017f5b6265745d2042616c616e63653a20257300000000000000000000000000000081525047610d9b565b600061064182610e37565b9050600061064d610234565b9050600061065b8383610edd565b90506000811415610729576106a46040518060400160405280600f81526020017f53656e64206261636b206d6f6e65790000000000000000000000000000000000815250610f23565b3373ffffffffffffffffffffffffffffffffffffffff166108fc349081150290604051600060405180830381858888f193505050501580156106ea573d6000803e3d6000fd5b507f6062387a7968f993536767c79307098baa39e48bbf50be934a62ce2118f82581333460405161071c929190611286565b60405180910390a16108db565b60018114156107ae576107706040518060400160405280600a81526020017f4465616c65722077696e00000000000000000000000000000000000000000000815250610f23565b7f84d93bc12aa4a669a8ffbf9b71b2dd92973440053620e79b1ab126125c3667be33346040516107a1929190611286565b60405180910390a16108da565b60006002346107bd919061151b565b90506000606460048054906101000a900463ffffffff1663ffffffff16836107e5919061151b565b6107ef91906114ea565b905080826107fd9190611575565b915080600260008282546108119190611494565b925050819055506108576040518060400160405280601e81526020017f4465616c6572206c6f7365205b546f20666f6d6f20706f6f6c5d20257320000081525082610d9b565b3373ffffffffffffffffffffffffffffffffffffffff166108fc839081150290604051600060405180830381858888f1935050505015801561089d573d6000803e3d6000fd5b507ff04d9de2520b1395f81812225f7ffe85c43cc0c317812545907639df69993b3333346040516108cf929190611286565b60405180910390a150505b5b50505050565b60035481565b60008060009054906101000a900473ffffffffffffffffffffffffffffffffffffffff16905090565b600460009054906101000a900463ffffffff1681565b60025481565b600160009054906101000a900473ffffffffffffffffffffffffffffffffffffffff1681565b61095a610bd7565b73ffffffffffffffffffffffffffffffffffffffff166109786108e7565b73ffffffffffffffffffffffffffffffffffffffff16146109ce576040517f08c379a00000000000000000000000000000000000000000000000000000000081526004016109c5906113a1565b60405180910390fd5b610a0d6040518060400160405280601481526020017f5b41646420706f6f6c5d2042616c616e63653a2000000000000000000000000081525047610d9b565b7f6f92874181ba07c8e988c53b7d3c2fdcff7154a3500137bf6a350ebac65c087034604051610a3c91906113e1565b60405180910390a1565b610a4e610bd7565b73ffffffffffffffffffffffffffffffffffffffff16610a6c6108e7565b73ffffffffffffffffffffffffffffffffffffffff1614610ac2576040517f08c379a0000000000000000000000000000000000000000000000000000000008152600401610ab9906113a1565b60405180910390fd5b600073ffffffffffffffffffffffffffffffffffffffff168173ffffffffffffffffffffffffffffffffffffffff161415610b32576040517f08c379a0000000000000000000000000000000000000000000000000000000008152600401610b2990611361565b60405180910390fd5b610b3b81610bdf565b50565b610bd481604051602401610b5291906113e1565b6040516020818303038152906040527ff5b1bba9000000000000000000000000000000000000000000000000000000007bffffffffffffffffffffffffffffffffffffffffffffffffffffffff19166020820180517bffffffffffffffffffffffffffffffffffffffffffffffffffffffff8381831617835250505050610fbc565b50565b600033905090565b60008060009054906101000a900473ffffffffffffffffffffffffffffffffffffffff169050816000806101000a81548173ffffffffffffffffffffffffffffffffffffffff021916908373ffffffffffffffffffffffffffffffffffffffff1602179055508173ffffffffffffffffffffffffffffffffffffffff168173ffffffffffffffffffffffffffffffffffffffff167f8be0079c531659141344cd1fd0a4f28419497f9722a3daafe3b4186f6b6457e060405160405180910390a35050565b610d3d838383604051602401610cbb939291906112ec565b6040516020818303038152906040527ff362ca59000000000000000000000000000000000000000000000000000000007bffffffffffffffffffffffffffffffffffffffffffffffffffffffff19166020820180517bffffffffffffffffffffffffffffffffffffffffffffffffffffffff8381831617835250505050610fbc565b505050565b600081604051602001610d559190611254565b6040516020818303038152906040528051906020012083604051602001610d7c9190611254565b6040516020818303038152906040528051906020012014905092915050565b610e338282604051602401610db1929190611331565b6040516020818303038152906040527f9710a9d0000000000000000000000000000000000000000000000000000000007bffffffffffffffffffffffffffffffffffffffffffffffffffffffff19166020820180517bffffffffffffffffffffffffffffffffffffffffffffffffffffffff8381831617835250505050610fbc565b5050565b6000610e78826040518060400160405280600181526020017f5200000000000000000000000000000000000000000000000000000000000000815250610d42565b15610e865760009050610ed8565b610ec5826040518060400160405280600181526020017f5000000000000000000000000000000000000000000000000000000000000000815250610d42565b15610ed35760019050610ed8565b600290505b919050565b600081831415610ef05760009050610f1d565b82821180610f0a5750600082148015610f095750600283145b5b15610f185760019050610f1d565b600290505b92915050565b610fb981604051602401610f3791906112ca565b6040516020818303038152906040527f41304fac000000000000000000000000000000000000000000000000000000007bffffffffffffffffffffffffffffffffffffffffffffffffffffffff19166020820180517bffffffffffffffffffffffffffffffffffffffffffffffffffffffff8381831617835250505050610fbc565b50565b60008151905060006a636f6e736f6c652e6c6f679050602083016000808483855afa5050505050565b6000610ff8610ff38461143c565b611417565b90508281526020810184848401111561101457611013611730565b5b61101f84828561162b565b509392505050565b6000813590506110368161181a565b92915050565b600082601f8301126110515761105061172b565b5b8135611061848260208601610fe5565b91505092915050565b60008151905061107981611831565b92915050565b6000602082840312156110955761109461173a565b5b60006110a384828501611027565b91505092915050565b6000602082840312156110c2576110c161173a565b5b600082013567ffffffffffffffff8111156110e0576110df611735565b5b6110ec8482850161103c565b91505092915050565b60006020828403121561110b5761110a61173a565b5b60006111198482850161106a565b91505092915050565b61112b816115a9565b82525050565b61113a816115f5565b82525050565b600061114b8261146d565b6111558185611478565b935061116581856020860161163a565b61116e8161173f565b840191505092915050565b60006111848261146d565b61118e8185611489565b935061119e81856020860161163a565b80840191505092915050565b60006111b7602683611478565b91506111c282611750565b604082019050919050565b60006111da601e83611478565b91506111e58261179f565b602082019050919050565b60006111fd602083611478565b9150611208826117c8565b602082019050919050565b6000611220601b83611478565b915061122b826117f1565b602082019050919050565b61123f816115db565b82525050565b61124e816115e5565b82525050565b60006112608284611179565b915081905092915050565b60006020820190506112806000830184611122565b92915050565b600060408201905061129b6000830185611122565b6112a86020830184611236565b9392505050565b60006020820190506112c46000830184611131565b92915050565b600060208201905081810360008301526112e48184611140565b905092915050565b600060608201905081810360008301526113068186611140565b9050818103602083015261131a8185611140565b90506113296040830184611236565b949350505050565b6000604082019050818103600083015261134b8185611140565b905061135a6020830184611236565b9392505050565b6000602082019050818103600083015261137a816111aa565b9050919050565b6000602082019050818103600083015261139a816111cd565b9050919050565b600060208201905081810360008301526113ba816111f0565b9050919050565b600060208201905081810360008301526113da81611213565b9050919050565b60006020820190506113f66000830184611236565b92915050565b60006020820190506114116000830184611245565b92915050565b6000611421611432565b905061142d828261166d565b919050565b6000604051905090565b600067ffffffffffffffff821115611457576114566116fc565b5b6114608261173f565b9050602081019050919050565b600081519050919050565b600082825260208201905092915050565b600081905092915050565b600061149f826115db565b91506114aa836115db565b9250827fffffffffffffffffffffffffffffffffffffffffffffffffffffffffffffffff038211156114df576114de61169e565b5b828201905092915050565b60006114f5826115db565b9150611500836115db565b9250826115105761150f6116cd565b5b828204905092915050565b6000611526826115db565b9150611531836115db565b9250817fffffffffffffffffffffffffffffffffffffffffffffffffffffffffffffffff048311821515161561156a5761156961169e565b5b828202905092915050565b6000611580826115db565b915061158b836115db565b92508282101561159e5761159d61169e565b5b828203905092915050565b60006115b4826115bb565b9050919050565b600073ffffffffffffffffffffffffffffffffffffffff82169050919050565b6000819050919050565b600063ffffffff82169050919050565b600061160082611607565b9050919050565b600061161282611619565b9050919050565b6000611624826115bb565b9050919050565b82818337600083830152505050565b60005b8381101561165857808201518184015260208101905061163d565b83811115611667576000848401525b50505050565b6116768261173f565b810181811067ffffffffffffffff82111715611695576116946116fc565b5b80604052505050565b7f4e487b7100000000000000000000000000000000000000000000000000000000600052601160045260246000fd5b7f4e487b7100000000000000000000000000000000000000000000000000000000600052601260045260246000fd5b7f4e487b7100000000000000000000000000000000000000000000000000000000600052604160045260246000fd5b600080fd5b600080fd5b600080fd5b600080fd5b6000601f19601f8301169050919050565b7f4f776e61626c653a206e6577206f776e657220697320746865207a65726f206160008201527f6464726573730000000000000000000000000000000000000000000000000000602082015250565b7f57726f6e6720616374696f6e202853686f756c6420626520522c502c53290000600082015250565b7f4f776e61626c653a2063616c6c6572206973206e6f7420746865206f776e6572600082015250565b7f596f7572206265742073697a6520697320746f6f206c61726765210000000000600082015250565b611823816115a9565b811461182e57600080fd5b50565b61183a816115db565b811461184557600080fd5b5056fe466f6d6f2074696d65722066696e697368202d2073656e6420666f6d6f20706f6f6c202573a264697066735822122048ce98f40af9f4b18ad88dd5e92b90137bd001cb4132fa9bd2027153834b2a6d64736f6c63430008070033",
  "linkReferences": {},
  "deployedLinkReferences": {}
}