{
  "_format": "hh-sol-artifact-1",
  "contractName": "RPS",
  "sourceName": "contracts/RPS.sol",
  "abi": [
    {
      "inputs": [],
      "stateMutability": "nonpayable",
      "type": "constructor"
    },
    {
      "anonymous": false,
      "inputs": [
        {
          "indexed": true,
          "internalType": "address",
          "name": "previousOwner",
          "type": "address"
        },
        {
          "indexed": true,
          "internalType": "address",
          "name": "newOwner",
          "type": "address"
        }
      ],
      "name": "OwnershipTransferred",
      "type": "event"
    },
    {
      "inputs": [],
      "name": "addPool",
      "outputs": [],
      "stateMutability": "payable",
      "type": "function"
    },
    {
      "inputs": [
        {
          "internalType": "string",
          "name": "betAction",
          "type": "string"
        }
      ],
      "name": "bet",
      "outputs": [],
      "stateMutability": "payable",
      "type": "function"
    },
    {
      "inputs": [],
      "name": "owner",
      "outputs": [
        {
          "internalType": "address",
          "name": "",
          "type": "address"
        }
      ],
      "stateMutability": "view",
      "type": "function"
    },
    {
      "inputs": [],
      "name": "renounceOwnership",
      "outputs": [],
      "stateMutability": "nonpayable",
      "type": "function"
    },
    {
      "inputs": [
        {
          "internalType": "address",
          "name": "newOwner",
          "type": "address"
        }
      ],
      "name": "transferOwnership",
      "outputs": [],
      "stateMutability": "nonpayable",
      "type": "function"
    }
  ],
  "bytecode": "0x608060405234801561001057600080fd5b5061002d61002261003260201b60201c565b61003a60201b60201c565b6100fe565b600033905090565b60008060009054906101000a900473ffffffffffffffffffffffffffffffffffffffff169050816000806101000a81548173ffffffffffffffffffffffffffffffffffffffff021916908373ffffffffffffffffffffffffffffffffffffffff1602179055508173ffffffffffffffffffffffffffffffffffffffff168173ffffffffffffffffffffffffffffffffffffffff167f8be0079c531659141344cd1fd0a4f28419497f9722a3daafe3b4186f6b6457e060405160405180910390a35050565b610ffc8061010d6000396000f3fe60806040526004361061004a5760003560e01c8063715018a61461004f57806374030531146100665780638da5cb5b14610082578063ed12ba22146100ad578063f2fde38b146100b7575b600080fd5b34801561005b57600080fd5b506100646100e0565b005b610080600480360381019061007b91906109f2565b610168565b005b34801561008e57600080fd5b50610097610447565b6040516100a49190610b5e565b60405180910390f35b6100b5610470565b005b3480156100c357600080fd5b506100de60048036038101906100d991906109c9565b61052d565b005b6100e8610625565b73ffffffffffffffffffffffffffffffffffffffff16610106610447565b73ffffffffffffffffffffffffffffffffffffffff161461015c576040517f08c379a000000000000000000000000000000000000000000000000000000000815260040161015390610c50565b60405180910390fd5b610166600061062d565b565b6101a86040518060400160405280601781526020017f42657474696e6720257320776974682073697a6520257300000000000000000081525082346106f1565b6101e7816040518060400160405280600181526020017f5200000000000000000000000000000000000000000000000000000000000000815250610790565b8061022d575061022c816040518060400160405280600181526020017f5000000000000000000000000000000000000000000000000000000000000000815250610790565b5b806102735750610272816040518060400160405280600181526020017f5300000000000000000000000000000000000000000000000000000000000000815250610790565b5b6102b2576040517f08c379a00000000000000000000000000000000000000000000000000000000081526004016102a990610c30565b60405180910390fd5b6002476102bf9190610d0d565b341115610301576040517f08c379a00000000000000000000000000000000000000000000000000000000081526004016102f890610c70565b60405180910390fd5b6103406040518060400160405280600f81526020017f5b6265745d2042616c616e63653a200000000000000000000000000000000000815250476107e9565b600061034a610885565b14156103da5761038e6040518060400160405280600f81526020017f53656e64206261636b206d6f6e6579000000000000000000000000000000000081525061088a565b3373ffffffffffffffffffffffffffffffffffffffff166108fc349081150290604051600060405180830381858888f193505050501580156103d4573d6000803e3d6000fd5b50610444565b60016103e4610885565b14156103ef57610443565b3373ffffffffffffffffffffffffffffffffffffffff166108fc6002346104169190610d3e565b9081150290604051600060405180830381858888f19350505050158015610441573d6000803e3d6000fd5b505b5b50565b60008060009054906101000a900473ffffffffffffffffffffffffffffffffffffffff16905090565b610478610625565b73ffffffffffffffffffffffffffffffffffffffff16610496610447565b73ffffffffffffffffffffffffffffffffffffffff16146104ec576040517f08c379a00000000000000000000000000000000000000000000000000000000081526004016104e390610c50565b60405180910390fd5b61052b6040518060400160405280601481526020017f5b41646420706f6f6c5d2042616c616e63653a20000000000000000000000000815250476107e9565b565b610535610625565b73ffffffffffffffffffffffffffffffffffffffff16610553610447565b73ffffffffffffffffffffffffffffffffffffffff16146105a9576040517f08c379a00000000000000000000000000000000000000000000000000000000081526004016105a090610c50565b60405180910390fd5b600073ffffffffffffffffffffffffffffffffffffffff168173ffffffffffffffffffffffffffffffffffffffff161415610619576040517f08c379a000000000000000000000000000000000000000000000000000000000815260040161061090610c10565b60405180910390fd5b6106228161062d565b50565b600033905090565b60008060009054906101000a900473ffffffffffffffffffffffffffffffffffffffff169050816000806101000a81548173ffffffffffffffffffffffffffffffffffffffff021916908373ffffffffffffffffffffffffffffffffffffffff1602179055508173ffffffffffffffffffffffffffffffffffffffff168173ffffffffffffffffffffffffffffffffffffffff167f8be0079c531659141344cd1fd0a4f28419497f9722a3daafe3b4186f6b6457e060405160405180910390a35050565b61078b83838360405160240161070993929190610b9b565b6040516020818303038152906040527ff362ca59000000000000000000000000000000000000000000000000000000007bffffffffffffffffffffffffffffffffffffffffffffffffffffffff19166020820180517bffffffffffffffffffffffffffffffffffffffffffffffffffffffff8381831617835250505050610923565b505050565b6000816040516020016107a39190610b47565b60405160208183030381529060405280519060200120836040516020016107ca9190610b47565b6040516020818303038152906040528051906020012014905092915050565b61088182826040516024016107ff929190610be0565b6040516020818303038152906040527f9710a9d0000000000000000000000000000000000000000000000000000000007bffffffffffffffffffffffffffffffffffffffffffffffffffffffff19166020820180517bffffffffffffffffffffffffffffffffffffffffffffffffffffffff8381831617835250505050610923565b5050565b600090565b6109208160405160240161089e9190610b79565b6040516020818303038152906040527f41304fac000000000000000000000000000000000000000000000000000000007bffffffffffffffffffffffffffffffffffffffffffffffffffffffff19166020820180517bffffffffffffffffffffffffffffffffffffffffffffffffffffffff8381831617835250505050610923565b50565b60008151905060006a636f6e736f6c652e6c6f679050602083016000808483855afa5050505050565b600061095f61095a84610cb5565b610c90565b90508281526020810184848401111561097757600080fd5b610982848285610dd4565b509392505050565b60008135905061099981610faf565b92915050565b600082601f8301126109b057600080fd5b81356109c084826020860161094c565b91505092915050565b6000602082840312156109db57600080fd5b60006109e98482850161098a565b91505092915050565b600060208284031215610a0457600080fd5b600082013567ffffffffffffffff811115610a1e57600080fd5b610a2a8482850161099f565b91505092915050565b610a3c81610d98565b82525050565b6000610a4d82610ce6565b610a578185610cf1565b9350610a67818560208601610de3565b610a7081610ed4565b840191505092915050565b6000610a8682610ce6565b610a908185610d02565b9350610aa0818560208601610de3565b80840191505092915050565b6000610ab9602683610cf1565b9150610ac482610ee5565b604082019050919050565b6000610adc601e83610cf1565b9150610ae782610f34565b602082019050919050565b6000610aff602083610cf1565b9150610b0a82610f5d565b602082019050919050565b6000610b22601b83610cf1565b9150610b2d82610f86565b602082019050919050565b610b4181610dca565b82525050565b6000610b538284610a7b565b915081905092915050565b6000602082019050610b736000830184610a33565b92915050565b60006020820190508181036000830152610b938184610a42565b905092915050565b60006060820190508181036000830152610bb58186610a42565b90508181036020830152610bc98185610a42565b9050610bd86040830184610b38565b949350505050565b60006040820190508181036000830152610bfa8185610a42565b9050610c096020830184610b38565b9392505050565b60006020820190508181036000830152610c2981610aac565b9050919050565b60006020820190508181036000830152610c4981610acf565b9050919050565b60006020820190508181036000830152610c6981610af2565b9050919050565b60006020820190508181036000830152610c8981610b15565b9050919050565b6000610c9a610cab565b9050610ca68282610e16565b919050565b6000604051905090565b600067ffffffffffffffff821115610cd057610ccf610ea5565b5b610cd982610ed4565b9050602081019050919050565b600081519050919050565b600082825260208201905092915050565b600081905092915050565b6000610d1882610dca565b9150610d2383610dca565b925082610d3357610d32610e76565b5b828204905092915050565b6000610d4982610dca565b9150610d5483610dca565b9250817fffffffffffffffffffffffffffffffffffffffffffffffffffffffffffffffff0483118215151615610d8d57610d8c610e47565b5b828202905092915050565b6000610da382610daa565b9050919050565b600073ffffffffffffffffffffffffffffffffffffffff82169050919050565b6000819050919050565b82818337600083830152505050565b60005b83811015610e01578082015181840152602081019050610de6565b83811115610e10576000848401525b50505050565b610e1f82610ed4565b810181811067ffffffffffffffff82111715610e3e57610e3d610ea5565b5b80604052505050565b7f4e487b7100000000000000000000000000000000000000000000000000000000600052601160045260246000fd5b7f4e487b7100000000000000000000000000000000000000000000000000000000600052601260045260246000fd5b7f4e487b7100000000000000000000000000000000000000000000000000000000600052604160045260246000fd5b6000601f19601f8301169050919050565b7f4f776e61626c653a206e6577206f776e657220697320746865207a65726f206160008201527f6464726573730000000000000000000000000000000000000000000000000000602082015250565b7f57726f6e6720616374696f6e202853686f756c6420626520522c502c53290000600082015250565b7f4f776e61626c653a2063616c6c6572206973206e6f7420746865206f776e6572600082015250565b7f596f7572206265742073697a6520697320746f6f206c61726765210000000000600082015250565b610fb881610d98565b8114610fc357600080fd5b5056fea26469706673582212207fa6cf42658e913e07154f9a131da0c447d7e755237ed219ca5b1c948b284aa464736f6c63430008040033",
  "linkReferences": {},
  "deployedLinkReferences": {}
}